:020000040800F2
:100000007006002099020008A30E00083F0E0008A9
:10001000A10E00088F0400085D0F0008000000001A
:10002000000000000000000000000000A70E000813
:100030009104000800000000A50E0008A90E0008A9
:10004000B3020008B3020008B3020008B3020008BC
:10005000B3020008B3020008B3020008B3020008AC
:10006000B3020008B3020008B3020008B30200089C
:10007000B3020008B3020008B3020008B30200088C
:10008000B3020008B3020008B3020008B30200087C
:10009000B3020008B3020008B3020008B30200086C
:1000A000B3020008B3020008B3020008B30200085C
:1000B000B3020008B3020008B3020008B30200084C
:1000C000B3020008B3020008B3020008B30200083C
:1000D000B3020008B3020008B3020008B30200082C
:1000E000B3020008B3020008B3020008B30200081C
:1000F000B3020008B3020008B3020008B30200080C
:10010000B3020008B3020008B3020008B3020008FB
:10011000B3020008B3020008B3020008B3020008EB
:10012000B3020008B3020008B3020008B3020008DB
:10013000B3020008B3020008B3020008B3020008CB
:10014000B3020008B3020008B3020008B3020008BB
:10015000B3020008B3020008B3020008B3020008AB
:10016000B3020008B3020008B3020008B30200089B
:10017000B3020008B3020008B30200080000000048
:10018000B3020008B3020008B3020008B30200087B
:10019000B3020008B3020008B3020008B30200086B
:1001A000B3020008B3020008B3020008B30200085B
:1001B000B3020008B3020008B3020008B30200084B
:1001C000B3020008B302000800000000B3020008F8
:1001D000B3020008B3020008B3020008B30200082B
:1001E000B3020008B3020008B3020008B30200081B
:1001F000B3020008B302000800F002F800F03CF877
:100200000AA090E8000C82448344AAF10107DA4571
:1002100001D100F031F8AFF2090EBAE80F0013F087
:10022000010F18BFFB1A43F001031847C80D000067
:10023000E80D0000103A24BF78C878C1FAD85207F8
:1002400024BF30C830C144BF04680C607047000050
:100250000023002400250026103A28BF78C1FBD8CF
:10026000520728BF30C148BF0B6070471FB500F070
:10027000B4FE1FBD10B510BD00F0CFF81146FFF75A
:10028000F5FF00F07DFE00F0EDF803B4FFF7F2FF9C
:1002900003BC00F0F5F80000094880470948004712
:1002A000FEE7FEE7FEE7FEE7FEE7FEE7FEE7FEE726
:1002B000FEE7FEE704480549054A064B7047000083
:1002C0004D0F0008F90100087000002070060020A2
:1002D000700200207002002053EA020C00F06980D6
:1002E0002DE9F04B4FF00006002B1FBFB3FA83F54A
:1002F00003FA05F424FA05F65E4012BF1643B2FA7B
:1003000082F502FA05F4C5F120051EBF22FA05FCAC
:1003100044EA0C04203556EA044C4FEA144418BF52
:10032000641C4FF000084FF00009904271EB030C81
:1003300039D3002919BFB1FA81F701FA07F6B0FAEB
:1003400080F700FA07F6C7F120071EBF20FA07FC66
:1003500046EA0C062037B6FBF4FCA7EB0507103F76
:1003600007F01F0BCBF120060CFA0BFB2CFA06F65C
:1003700044BFB3460026202FA4BF5E464FF0000BBB
:100380005BEA060C08BF4FF0010B19EB0B09ABFB46
:10039000027C48EB0608C01B06FB02CC0BFB03CC1F
:1003A00071EB0C01C1E70B46024641464846BDE8E9
:1003B000F08B13B54FF000004FF00001AFF3008059
:1003C000BDE81C4070474FF0000200B5134694464C
:1003D0009646203922BFA0E80C50A0E80C50B1F19D
:1003E0002001BFF4F7AF090728BFA0E80C5048BFB1
:1003F0000CC05DF804EB890028BF40F8042B08BF4F
:10040000704748BF20F8022B11F0804F18BF00F84A
:10041000012B7047704770477047754600F02CF805
:10042000AE4605006946534620F00700854618B0E1
:1004300020B5FFF73FFFBDE820404FF000064FF02A
:1004400000074FF000084FF0000B21F00701AC4609
:10045000ACE8C009ACE8C009ACE8C009ACE8C00928
:100460008D46704710B50446AFF300802046BDE8C6
:100470001040FFF70ABF000000487047100000203E
:1004800001491820ABBEFEE7260002007047FEE7D8
:10049000704700002DE9F84FDFF80CB20124032566
:1004A0004FF00F0A00220BF1040E00BF0B6804FA94
:1004B00002F63340B34278D10F7907F00307012FDA
:1004C00001D0022F1AD187684FEA4209D1F80CC037
:1004D00005FA09F827EA08070CFA09FC4CEA070CA8
:1004E000C0F808C0476891F804C0B743CCF3001CBB
:1004F0000CFA02FC4CEA070CC0F804C00E79F64373
:10050000B6070BD0C6684FEA420C8F6805FA0CF8A4
:1005100026EA080607FA0CF73743C7600E7906F09B
:100520000306022E12D1D6084FEA427800EB860667
:1005300000960F69D6F820904FEAD8660AFA06FCB2
:10054000B74029EA0C063743009E37620F790668E8
:100550004FEA420C07F0030705FA0CF807FA0CF70C
:1005600026EA0806374307604E6816F4403F1CD061
:100570004E4E376847F480473760366822F00308EC
:10058000970706F480460096494E3F0F4644B14611
:10059000D6F80868DFF81C810AFA07FC404526EA0D
:1005A0000C0603D14FF0000C41E076E0DFF808C103
:1005B000604502D14FF0010C39E0DFF800C1604521
:1005C00002D14FF0020C32E0DFF8F4C0604502D1F6
:1005D0004FF0030C2BE0DFF8ECC0604502D14FF088
:1005E000040C24E0DFF8E0C0604502D14FF0050CB8
:1005F0001DE0DFF8D8C0604502D14FF0060C16E0D0
:10060000DFF8CCC0604502D14FF0070C0FE0DFF8F7
:10061000C4C0604502D14FF0080C08E0DFF8B8C054
:10062000604502D14FF0090C01E04FF00A0C0CFAC2
:1006300007FC4CEA060CC9F808C84F68DBF80060F4
:10064000FF0226EA030600D51E437746CBF800607A
:10065000D1F804C0DEF800605FEA8C2C26EA0306BD
:1006600000D51E43DFF840C03E60ACF1040C4F687B
:10067000DCF80060BF0326EA030600D51E430A4FDC
:10068000CCF80060083FD1F804C03E685FEACC3C7B
:1006900026EA030600D51E433E60521C102AFFF4D2
:1006A00005AFBDE8F88F0000083C01404438024027
:1006B00000300140000002400004024000080240F7
:1006C000000C0240001002400014024000180240DA
:1006D000001C0240002002400024024001488068C3
:1006E0007047000000000020024881680278114431
:1006F0008160704700000020032010B500F0AEF8C4
:100700000F2000F005F800F071F8002010BD000087
:1007100070B50D4D04464FF47A700C4A2978126872
:10072000B0FBF1F0B2FBF0F000F076FB48B9102C12
:1007300007D200222146501E00F070F800206C60A5
:1007400070BD012070BD0000000000200C000020E2
:10075000F0B5154C4378211D0A1D23600378F3B1D1
:1007600043680B60057BC67A817A437B2D07847BC7
:1007700045EA0665C77B90F809C0067A90F800E064
:1007800045EAC14040EA834040EA444040EA07402D
:1007900040EA0C2040EA460040EA0E0001E000205A
:1007A00008601060F0BD000098ED00E0BFF35F8FBF
:1007B000044800210368034A23F480330360703245
:1007C0001160704724ED00E0074A40F0010006493F
:1007D00070321060086840F480300860BFF34F8FBB
:1007E000BFF36F8F7047000024ED00E00A4808B5A2
:1007F000016841F080510160006800F08050009075
:100800000548001D016841F480410160006800F462
:100810008040009008BD0000403802400E4BF0B40C
:100820001B680D46C3F30223C3F10706042E00D94B
:100830000426191D072901D2002300E0DB1E012434
:1008400004FA06F19C40491E2940641E9940144058
:100850002143F0BC00F083BB0CED00E0064900F042
:10086000070210B54FF6FF040868044B204040EA29
:1008700002201843086010BD0CED00E00000FA05EE
:100880001848F8B5016841F0805101600068164CC5
:1008900000F080500090206840F480302060FFF726
:1008A0001DFF4FF47A76054605E000BFFFF716FFFF
:1008B000401BB0420FD86068C003F7D5206840F4F1
:1008C00000302060FFF70AFF054606E0FFF706FF4D
:1008D000401BB04201D90320F8BD60688003F5D504
:1008E0000020F8BD40380240007000402DE9F0477C
:1008F00005000F4663D0444E306800F00F00B84248
:1009000009D2306820F00F0038433060306800F0C2
:100910000F00B84253D128683C4C810712D54007DC
:1009200003D5206840F4E05020602878000703D504
:10093000206840F460402060A968206820F0F00042
:10094000084320602878C0072AD0304968680839F1
:10095000012810D00968022810D0890700292EDA52
:10096000216821F0030101432160FFF7B7FE8046B3
:1009700041F288390DE009688903EFE78901EDE765
:10098000FFF7ACFEA0EB0801494502D90320BDE802
:10099000F0876868216801F00C01B1EB800FEFD19E
:1009A000306800F00F00B8420BD9306820F00F001B
:1009B00038433060306800F00F00B84201D00120A9
:1009C000E5E72878400705D5E968206820F4E0507D
:1009D000084320602878000706D52869216821F49B
:1009E000604141EAC000206000F018F82168084A20
:1009F000C1F30311515CC84006490860064800680D
:100A0000FFF786FE0020C2E7003C024008380240A3
:100A1000E40F00080C00002004000020154910B568
:100A20001548096811F00C0213D01449042A0FD09C
:100A3000082A0ED10F4C241F2268236802F03F02BF
:100A40005B0207D52068C0F38810A0FB010106E017
:100A5000084610BD2168C1F38811A1FB00010023E5
:100A6000FFF73AFC2168C1F30141491C4900B0FB82
:100A7000F1F010BD083802400024F40040787D01F8
:100A80002DE9F84F04004FF000076ED02078DFF812
:100A90007CA3AAF10408C007A8F104054CD0DAF839
:100AA00000105046C1F38101012908D00068C0F34D
:100AB000810002280AD1D8F80000400206D5286833
:100AC000800339D560680028DFD035E06068B0F574
:100AD000803F0BD010B1B0F5A02F11D0286820F4C2
:100AE00080302860286820F4802002E0286840F4E4
:100AF00080302860606890B1FFF7F0FD06460AE09C
:100B0000286840F480202860F0E700BFFFF7E6FD8A
:100B1000801B642872D828688003F7D50CE0FFF7A3
:100B2000DDFD064605E000BFFFF7D8FD801B642809
:100B3000F0D828688003F7D42078800742D5DAF807
:100B40000010504611F00C0F08D00068C0F381006F
:100B500002280BD1D8F80000400207D4286880078B
:100B600018D5E068012800D114E04AE1E0680028C7
:100B7000286817D040F001002860FFF7AFFD064657
:100B800005E000BFFFF7AAFD801B0228C2D8286835
:100B90008007F7D52069296821F0F80141EAC000F3
:100BA00028600FE020F001002860FFF797FD06465F
:100BB00005E000BFFFF792FD801B02281ED82868C1
:100BC0008007F7D42078000729D5904861696C30F8
:100BD00000298146016812D041F001010160FFF750
:100BE0007DFD064605E000BFFFF778FD801B02286B
:100BF00004D8D9F800008007F6D510E089E021F08C
:100C000001010160FFF76AFD064604E0FFF766FD9B
:100C1000801B02287DD8D9F800008007F6D4207800
:100C200040076BD5DFF8E49109F13809D9F80000E5
:100C3000C0000BD4D9F8001041F08051C9F8001061
:100C4000D9F80000012700F080500090704801683A
:100C5000C90512D40168834641F480710160FFF731
:100C60003DFD064605E000BFFFF738FD801B642808
:100C70004FD8DBF80000C005F6D5644EA068683692
:100C800001280AD008B1052811D0306820F00100F1
:100C90003060306820F0040002E0306840F001006D
:100CA0003060A068A0B1FFF719FD83460CE0306802
:100CB00040F004003060F0E7FFF710FDA0EB0B01FF
:100CC00041F28830814268D830688007F4D50EE060
:100CD000FFF704FD834607E0FFF700FDA0EB0B01E3
:100CE00041F28830814258D830688007F4D42FB15F
:100CF000D9F8001021F08051C9F80010A069E0B3C4
:100D0000DAF80010C1F3810102294DD002282868C9
:100D100000E042E020F08070286003D0FFF7DEFCA6
:100D200004463DE0FFF7DAFC064604E0FFF7D6FC98
:100D3000801B022831D828688001F7D4D4E9092122
:100D4000DFF8D0C0D4E9070694F830304F0894F8A3
:100D50002C1030430CEB074444EA8212104340EA63
:100D6000016040EA0370C8F80000286840F0807015
:100D70002860FFF7B3FC044605E044E0FFF7AEFC53
:100D8000001B022809D828688001F7D53BE000BF86
:100D9000FFF7A4FC001B022802D90320BDE8F88F4E
:100DA00028688001F4D42EE00128D8F8000028D06B
:100DB000E16900F480028A4223D1216A00F03F02F7
:100DC0008A421ED1626A47F6C0710140B1EB821FB0
:100DD00017D1A16A4FF0FF3200F4403302EB51010A
:100DE000B3EB014F0DD194F82C1000F07062B2EB10
:100DF000016F06D194F8301000F0E040B0EB017FB5
:100E000001D00120CAE70020C8E7000008380240EE
:100E1000007000400000FFFF401EB0F1807F10B561
:100E200001D3012010BD4FF0E02460610F21601755
:100E300000F095F80020A0610721216110BDFEE7B8
:100E400030B587B014216846FFF7BDFA1148016834
:100E500041F004010160016801F00401059101689D
:100E600041F080010160006801250024694600F01E
:100E70008000059068038DE831000748FFF70AFB02
:100E80000C2069468DE831000448FFF703FB07B0EA
:100E900030BD00003038024000080240001C024013
:100EA000FEE7FEE770477047FFF71EBC30B593B012
:100EB00034216846FFF787FA14210DA8FFF783FA5B
:100EC0002048016841F080510160006800F08050C6
:100ED00012901D48016841F44041016000680025FE
:100EE0000DF1200C022400940822D823CDE90645F8
:100EF00000F4404012908CE81C0010210B9401205B
:100F00000C94CDE903016846FFF7BAFD08B172B64B
:100F1000FEE7FFF7B5FC08B172B6FEE74FF480526A
:100F20004FF4A0510F20CDE910120DAA072182E83D
:100F300031000DA8FFF7DAFC002801D072B6FEE7F9
:100F400013B030BD403802400070004002480168D4
:100F500041F470010160704788ED00E0FEE7090789
:100F600000284FEA116104DB00F1E02080F8001452
:100F7000704700F00F0000F1E02080F8141D70476A
:100F80001FB500240094019402940394FFF70EFC13
:100F900001208DF80C001F218DF8081087228DF894
:100FA00009208DF80D008DF8000068468DF80A4084
:100FB0008DF80E408DF8014001948DF80B408DF8AE
:100FC0000F40FFF7C5FB0420FFF7FEFBFFF794FB84
:100FD000FFF76CFFFFF734FFFEE74FF04070E1EEE4
:100FE000100A704700000000000000000102030426
:100FF0000607080914100008000000201000000077
:1010000034020008241000081000002060060000D0
:101010005002000801000000100000000000000065
:041020000024F400B4
:04000005080001F9F5
:00000001FF
